{
  "_format": "hh-sol-artifact-1",
  "contractName": "SimpleContract",
  "sourceName": "contracts/SimpleContract.sol",
  "abi": [
    {
      "inputs": [],
      "stateMutability": "nonpayable",
      "type": "constructor"
    },
    {
      "anonymous": false,
      "inputs": [
        {
          "indexed": true,
          "internalType": "address",
          "name": "owner",
          "type": "address"
        },
        {
          "indexed": true,
          "internalType": "address",
          "name": "approved",
          "type": "address"
        },
        {
          "indexed": true,
          "internalType": "uint256",
          "name": "tokenId",
          "type": "uint256"
        }
      ],
      "name": "Approval",
      "type": "event"
    },
    {
      "anonymous": false,
      "inputs": [
        {
          "indexed": true,
          "internalType": "address",
          "name": "owner",
          "type": "address"
        },
        {
          "indexed": true,
          "internalType": "address",
          "name": "operator",
          "type": "address"
        },
        {
          "indexed": false,
          "internalType": "bool",
          "name": "approved",
          "type": "bool"
        }
      ],
      "name": "ApprovalForAll",
      "type": "event"
    },
    {
      "anonymous": false,
      "inputs": [
        {
          "indexed": true,
          "internalType": "address",
          "name": "previousOwner",
          "type": "address"
        },
        {
          "indexed": true,
          "internalType": "address",
          "name": "newOwner",
          "type": "address"
        }
      ],
      "name": "OwnershipTransferred",
      "type": "event"
    },
    {
      "anonymous": false,
      "inputs": [
        {
          "indexed": true,
          "internalType": "address",
          "name": "from",
          "type": "address"
        },
        {
          "indexed": true,
          "internalType": "address",
          "name": "to",
          "type": "address"
        },
        {
          "indexed": true,
          "internalType": "uint256",
          "name": "tokenId",
          "type": "uint256"
        }
      ],
      "name": "Transfer",
      "type": "event"
    },
    {
      "inputs": [],
      "name": "MINT_PRICE",
      "outputs": [
        {
          "internalType": "uint256",
          "name": "",
          "type": "uint256"
        }
      ],
      "stateMutability": "view",
      "type": "function"
    },
    {
      "inputs": [],
      "name": "TOTAL_SUPPLY",
      "outputs": [
        {
          "internalType": "uint256",
          "name": "",
          "type": "uint256"
        }
      ],
      "stateMutability": "view",
      "type": "function"
    },
    {
      "inputs": [
        {
          "internalType": "address",
          "name": "to",
          "type": "address"
        },
        {
          "internalType": "uint256",
          "name": "tokenId",
          "type": "uint256"
        }
      ],
      "name": "approve",
      "outputs": [],
      "stateMutability": "nonpayable",
      "type": "function"
    },
    {
      "inputs": [
        {
          "internalType": "address",
          "name": "owner",
          "type": "address"
        }
      ],
      "name": "balanceOf",
      "outputs": [
        {
          "internalType": "uint256",
          "name": "",
          "type": "uint256"
        }
      ],
      "stateMutability": "view",
      "type": "function"
    },
    {
      "inputs": [],
      "name": "baseTokenURI",
      "outputs": [
        {
          "internalType": "string",
          "name": "",
          "type": "string"
        }
      ],
      "stateMutability": "view",
      "type": "function"
    },
    {
      "inputs": [
        {
          "internalType": "uint256",
          "name": "tokenId",
          "type": "uint256"
        }
      ],
      "name": "getApproved",
      "outputs": [
        {
          "internalType": "address",
          "name": "",
          "type": "address"
        }
      ],
      "stateMutability": "view",
      "type": "function"
    },
    {
      "inputs": [
        {
          "internalType": "address",
          "name": "owner",
          "type": "address"
        },
        {
          "internalType": "address",
          "name": "operator",
          "type": "address"
        }
      ],
      "name": "isApprovedForAll",
      "outputs": [
        {
          "internalType": "bool",
          "name": "",
          "type": "bool"
        }
      ],
      "stateMutability": "view",
      "type": "function"
    },
    {
      "inputs": [
        {
          "internalType": "address",
          "name": "recipient",
          "type": "address"
        }
      ],
      "name": "mintTo",
      "outputs": [
        {
          "internalType": "uint256",
          "name": "",
          "type": "uint256"
        }
      ],
      "stateMutability": "payable",
      "type": "function"
    },
    {
      "inputs": [],
      "name": "name",
      "outputs": [
        {
          "internalType": "string",
          "name": "",
          "type": "string"
        }
      ],
      "stateMutability": "view",
      "type": "function"
    },
    {
      "inputs": [],
      "name": "owner",
      "outputs": [
        {
          "internalType": "address",
          "name": "",
          "type": "address"
        }
      ],
      "stateMutability": "view",
      "type": "function"
    },
    {
      "inputs": [
        {
          "internalType": "uint256",
          "name": "tokenId",
          "type": "uint256"
        }
      ],
      "name": "ownerOf",
      "outputs": [
        {
          "internalType": "address",
          "name": "",
          "type": "address"
        }
      ],
      "stateMutability": "view",
      "type": "function"
    },
    {
      "inputs": [
        {
          "internalType": "address",
          "name": "dest",
          "type": "address"
        }
      ],
      "name": "payments",
      "outputs": [
        {
          "internalType": "uint256",
          "name": "",
          "type": "uint256"
        }
      ],
      "stateMutability": "view",
      "type": "function"
    },
    {
      "inputs": [],
      "name": "renounceOwnership",
      "outputs": [],
      "stateMutability": "nonpayable",
      "type": "function"
    },
    {
      "inputs": [
        {
          "internalType": "address",
          "name": "from",
          "type": "address"
        },
        {
          "internalType": "address",
          "name": "to",
          "type": "address"
        },
        {
          "internalType": "uint256",
          "name": "tokenId",
          "type": "uint256"
        }
      ],
      "name": "safeTransferFrom",
      "outputs": [],
      "stateMutability": "nonpayable",
      "type": "function"
    },
    {
      "inputs": [
        {
          "internalType": "address",
          "name": "from",
          "type": "address"
        },
        {
          "internalType": "address",
          "name": "to",
          "type": "address"
        },
        {
          "internalType": "uint256",
          "name": "tokenId",
          "type": "uint256"
        },
        {
          "internalType": "bytes",
          "name": "_data",
          "type": "bytes"
        }
      ],
      "name": "safeTransferFrom",
      "outputs": [],
      "stateMutability": "nonpayable",
      "type": "function"
    },
    {
      "inputs": [
        {
          "internalType": "address",
          "name": "operator",
          "type": "address"
        },
        {
          "internalType": "bool",
          "name": "approved",
          "type": "bool"
        }
      ],
      "name": "setApprovalForAll",
      "outputs": [],
      "stateMutability": "nonpayable",
      "type": "function"
    },
    {
      "inputs": [
        {
          "internalType": "string",
          "name": "_baseTokenURI",
          "type": "string"
        }
      ],
      "name": "setBaseTokenURI",
      "outputs": [],
      "stateMutability": "nonpayable",
      "type": "function"
    },
    {
      "inputs": [
        {
          "internalType": "bytes4",
          "name": "interfaceId",
          "type": "bytes4"
        }
      ],
      "name": "supportsInterface",
      "outputs": [
        {
          "internalType": "bool",
          "name": "",
          "type": "bool"
        }
      ],
      "stateMutability": "view",
      "type": "function"
    },
    {
      "inputs": [],
      "name": "symbol",
      "outputs": [
        {
          "internalType": "string",
          "name": "",
          "type": "string"
        }
      ],
      "stateMutability": "view",
      "type": "function"
    },
    {
      "inputs": [
        {
          "internalType": "uint256",
          "name": "tokenId",
          "type": "uint256"
        }
      ],
      "name": "tokenURI",
      "outputs": [
        {
          "internalType": "string",
          "name": "",
          "type": "string"
        }
      ],
      "stateMutability": "view",
      "type": "function"
    },
    {
      "inputs": [
        {
          "internalType": "address",
          "name": "from",
          "type": "address"
        },
        {
          "internalType": "address",
          "name": "to",
          "type": "address"
        },
        {
          "internalType": "uint256",
          "name": "tokenId",
          "type": "uint256"
        }
      ],
      "name": "transferFrom",
      "outputs": [],
      "stateMutability": "nonpayable",
      "type": "function"
    },
    {
      "inputs": [
        {
          "internalType": "address",
          "name": "newOwner",
          "type": "address"
        }
      ],
      "name": "transferOwnership",
      "outputs": [],
      "stateMutability": "nonpayable",
      "type": "function"
    },
    {
      "inputs": [
        {
          "internalType": "address payable",
          "name": "payee",
          "type": "address"
        }
      ],
      "name": "withdrawPayments",
      "outputs": [],
      "stateMutability": "nonpayable",
      "type": "function"
    }
  ],
  "bytecode": "0x60a06040523480156200001157600080fd5b506040518060400160405280600d81526020017f53696d706c65546f6b656e3131000000000000000000000000000000000000008152506040518060400160405280600881526020017f53494d504c45313100000000000000000000000000000000000000000000000081525081600090805190602001906200009692919062000230565b508060019080519060200190620000af92919062000230565b505050604051620000c090620002c1565b604051809103906000f080158015620000dd573d6000803e3d6000fd5b5073ffffffffffffffffffffffffffffffffffffffff1660808173ffffffffffffffffffffffffffffffffffffffff1660601b8152505062000134620001286200016260201b60201c565b6200016a60201b60201c565b60405180602001604052806000815250600890805190602001906200015b92919062000230565b5062000353565b600033905090565b6000600660009054906101000a900473ffffffffffffffffffffffffffffffffffffffff16905081600660006101000a81548173ffffffffffffffffffffffffffffffffffffffff021916908373ffffffffffffffffffffffffffffffffffffffff1602179055508173ffffffffffffffffffffffffffffffffffffffff168173ffffffffffffffffffffffffffffffffffffffff167f8be0079c531659141344cd1fd0a4f28419497f9722a3daafe3b4186f6b6457e060405160405180910390a35050565b8280546200023e90620002ee565b90600052602060002090601f016020900481019282620002625760008555620002ae565b82601f106200027d57805160ff1916838001178555620002ae565b82800160010185558215620002ae579182015b82811115620002ad57825182559160200191906001019062000290565b5b509050620002bd9190620002cf565b5090565b610d09806200384083390190565b5b80821115620002ea576000816000905550600101620002d0565b5090565b600060028204905060018216806200030757607f821691505b602082108114156200031e576200031d62000324565b5b50919050565b7f4e487b7100000000000000000000000000000000000000000000000000000000600052602260045260246000fd5b60805160601c6134c76200037960003960008181610f5c015261167401526134c76000f3fe6080604052600436106101405760003560e01c8063755edd17116100b6578063c002d23d1161006f578063c002d23d1461044b578063c87b56dd14610476578063d547cfb7146104b3578063e2982c21146104de578063e985e9c51461051b578063f2fde38b1461055857610140565b8063755edd17146103485780638da5cb5b14610378578063902d55a5146103a357806395d89b41146103ce578063a22cb465146103f9578063b88d4fde1461042257610140565b806330176e131161010857806330176e131461023c57806331b3eb941461026557806342842e0e1461028e5780636352211e146102b757806370a08231146102f4578063715018a61461033157610140565b806301ffc9a71461014557806306fdde0314610182578063081812fc146101ad578063095ea7b3146101ea57806323b872dd14610213575b600080fd5b34801561015157600080fd5b5061016c600480360381019061016791906123df565b610581565b60405161017991906128bf565b60405180910390f35b34801561018e57600080fd5b50610197610663565b6040516101a491906128da565b60405180910390f35b3480156101b957600080fd5b506101d460048036038101906101cf9190612472565b6106f5565b6040516101e1919061283d565b60405180910390f35b3480156101f657600080fd5b50610211600480360381019061020c91906123a3565b61077a565b005b34801561021f57600080fd5b5061023a6004803603810190610235919061229d565b610892565b005b34801561024857600080fd5b50610263600480360381019061025e9190612431565b6108f2565b005b34801561027157600080fd5b5061028c60048036038101906102879190612238565b610988565b005b34801561029a57600080fd5b506102b560048036038101906102b0919061229d565b610a10565b005b3480156102c357600080fd5b506102de60048036038101906102d99190612472565b610a30565b6040516102eb919061283d565b60405180910390f35b34801561030057600080fd5b5061031b6004803603810190610316919061220f565b610ae2565b6040516103289190612b3c565b60405180910390f35b34801561033d57600080fd5b50610346610b9a565b005b610362600480360381019061035d919061220f565b610c22565b60405161036f9190612b3c565b60405180910390f35b34801561038457600080fd5b5061038d610ce4565b60405161039a919061283d565b60405180910390f35b3480156103af57600080fd5b506103b8610d0e565b6040516103c59190612b3c565b60405180910390f35b3480156103da57600080fd5b506103e3610d14565b6040516103f091906128da565b60405180910390f35b34801561040557600080fd5b50610420600480360381019061041b9190612367565b610da6565b005b34801561042e57600080fd5b50610449600480360381019061044491906122ec565b610dbc565b005b34801561045757600080fd5b50610460610e1e565b60405161046d9190612b3c565b60405180910390f35b34801561048257600080fd5b5061049d60048036038101906104989190612472565b610e23565b6040516104aa91906128da565b60405180910390f35b3480156104bf57600080fd5b506104c8610eca565b6040516104d591906128da565b60405180910390f35b3480156104ea57600080fd5b506105056004803603810190610500919061220f565b610f58565b6040516105129190612b3c565b60405180910390f35b34801561052757600080fd5b50610542600480360381019061053d9190612261565b61100a565b60405161054f91906128bf565b60405180910390f35b34801561056457600080fd5b5061057f600480360381019061057a919061220f565b61109e565b005b60007f80ac58cd000000000000000000000000000000000000000000000000000000007bffffffffffffffffffffffffffffffffffffffffffffffffffffffff1916827bffffffffffffffffffffffffffffffffffffffffffffffffffffffff1916148061064c57507f5b5e139f000000000000000000000000000000000000000000000000000000007bffffffffffffffffffffffffffffffffffffffffffffffffffffffff1916827bffffffffffffffffffffffffffffffffffffffffffffffffffffffff1916145b8061065c575061065b82611196565b5b9050919050565b60606000805461067290612da4565b80601f016020809104026020016040519081016040528092919081815260200182805461069e90612da4565b80156106eb5780601f106106c0576101008083540402835291602001916106eb565b820191906000526020600020905b8154815290600101906020018083116106ce57829003601f168201915b5050505050905090565b600061070082611200565b61073f576040517f08c379a000000000000000000000000000000000000000000000000000000000815260040161073690612a7c565b60405180910390fd5b6004600083815260200190815260200160002060009054906101000a900473ffffffffffffffffffffffffffffffffffffffff169050919050565b600061078582610a30565b90508073ffffffffffffffffffffffffffffffffffffffff168373ffffffffffffffffffffffffffffffffffffffff1614156107f6576040517f08c379a00000000000000000000000000000000000000000000000000000000081526004016107ed90612adc565b60405180910390fd5b8073ffffffffffffffffffffffffffffffffffffffff1661081561126c565b73ffffffffffffffffffffffffffffffffffffffff16148061084457506108438161083e61126c565b61100a565b5b610883576040517f08c379a000000000000000000000000000000000000000000000000000000000815260040161087a906129fc565b60405180910390fd5b61088d8383611274565b505050565b6108a361089d61126c565b8261132d565b6108e2576040517f08c379a00000000000000000000000000000000000000000000000000000000081526004016108d990612afc565b60405180910390fd5b6108ed83838361140b565b505050565b6108fa61126c565b73ffffffffffffffffffffffffffffffffffffffff16610918610ce4565b73ffffffffffffffffffffffffffffffffffffffff161461096e576040517f08c379a000000000000000000000000000000000000000000000000000000000815260040161096590612a9c565b60405180910390fd5b8060089080519060200190610984929190612009565b5050565b61099061126c565b73ffffffffffffffffffffffffffffffffffffffff166109ae610ce4565b73ffffffffffffffffffffffffffffffffffffffff1614610a04576040517f08c379a00000000000000000000000000000000000000000000000000000000081526004016109fb90612a9c565b60405180910390fd5b610a0d81611672565b50565b610a2b83838360405180602001604052806000815250610dbc565b505050565b6000806002600084815260200190815260200160002060009054906101000a900473ffffffffffffffffffffffffffffffffffffffff169050600073ffffffffffffffffffffffffffffffffffffffff168173ffffffffffffffffffffffffffffffffffffffff161415610ad9576040517f08c379a0000000000000000000000000000000000000000000000000000000008152600401610ad090612a3c565b60405180910390fd5b80915050919050565b60008073ffffffffffffffffffffffffffffffffffffffff168273ffffffffffffffffffffffffffffffffffffffff161415610b53576040517f08c379a0000000000000000000000000000000000000000000000000000000008152600401610b4a90612a1c565b60405180910390fd5b600360008373ffffffffffffffffffffffffffffffffffffffff1673ffffffffffffffffffffffffffffffffffffffff168152602001908152602001600020549050919050565b610ba261126c565b73ffffffffffffffffffffffffffffffffffffffff16610bc0610ce4565b73ffffffffffffffffffffffffffffffffffffffff1614610c16576040517f08c379a0000000000000000000000000000000000000000000000000000000008152600401610c0d90612a9c565b60405180910390fd5b610c206000611700565b565b600080610c2f60076117c6565b90506127108110610c75576040517f08c379a0000000000000000000000000000000000000000000000000000000008152600401610c6c90612b1c565b60405180910390fd5b60003414610cb8576040517f08c379a0000000000000000000000000000000000000000000000000000000008152600401610caf906129bc565b60405180910390fd5b610cc260076117d4565b6000610cce60076117c6565b9050610cda84826117ea565b8092505050919050565b6000600660009054906101000a900473ffffffffffffffffffffffffffffffffffffffff16905090565b61271081565b606060018054610d2390612da4565b80601f0160208091040260200160405190810160405280929190818152602001828054610d4f90612da4565b8015610d9c5780601f10610d7157610100808354040283529160200191610d9c565b820191906000526020600020905b815481529060010190602001808311610d7f57829003601f168201915b5050505050905090565b610db8610db161126c565b8383611808565b5050565b610dcd610dc761126c565b8361132d565b610e0c576040517f08c379a0000000000000000000000000000000000000000000000000000000008152600401610e0390612afc565b60405180910390fd5b610e1884848484611975565b50505050565b600081565b6060610e2e82611200565b610e6d576040517f08c379a0000000000000000000000000000000000000000000000000000000008152600401610e6490612abc565b60405180910390fd5b6000610e776119d1565b90506000815111610e975760405180602001604052806000815250610ec2565b80610ea184611a63565b604051602001610eb2929190612819565b6040516020818303038152906040525b915050919050565b60088054610ed790612da4565b80601f0160208091040260200160405190810160405280929190818152602001828054610f0390612da4565b8015610f505780601f10610f2557610100808354040283529160200191610f50565b820191906000526020600020905b815481529060010190602001808311610f3357829003601f168201915b505050505081565b60007f000000000000000000000000000000000000000000000000000000000000000073ffffffffffffffffffffffffffffffffffffffff1663e3a9db1a836040518263ffffffff1660e01b8152600401610fb3919061283d565b60206040518083038186803b158015610fcb57600080fd5b505afa158015610fdf573d6000803e3d6000fd5b505050506040513d601f19601f82011682018060405250810190611003919061249b565b9050919050565b6000600560008473ffffffffffffffffffffffffffffffffffffffff1673ffffffffffffffffffffffffffffffffffffffff16815260200190815260200160002060008373ffffffffffffffffffffffffffffffffffffffff1673ffffffffffffffffffffffffffffffffffffffff16815260200190815260200160002060009054906101000a900460ff16905092915050565b6110a661126c565b73ffffffffffffffffffffffffffffffffffffffff166110c4610ce4565b73ffffffffffffffffffffffffffffffffffffffff161461111a576040517f08c379a000000000000000000000000000000000000000000000000000000000815260040161111190612a9c565b60405180910390fd5b600073ffffffffffffffffffffffffffffffffffffffff168173ffffffffffffffffffffffffffffffffffffffff16141561118a576040517f08c379a00000000000000000000000000000000000000000000000000000000081526004016111819061291c565b60405180910390fd5b61119381611700565b50565b60007f01ffc9a7000000000000000000000000000000000000000000000000000000007bffffffffffffffffffffffffffffffffffffffffffffffffffffffff1916827bffffffffffffffffffffffffffffffffffffffffffffffffffffffff1916149050919050565b60008073ffffffffffffffffffffffffffffffffffffffff166002600084815260200190815260200160002060009054906101000a900473ffffffffffffffffffffffffffffffffffffffff1673ffffffffffffffffffffffffffffffffffffffff1614159050919050565b600033905090565b816004600083815260200190815260200160002060006101000a81548173ffffffffffffffffffffffffffffffffffffffff021916908373ffffffffffffffffffffffffffffffffffffffff160217905550808273ffffffffffffffffffffffffffffffffffffffff166112e783610a30565b73ffffffffffffffffffffffffffffffffffffffff167f8c5be1e5ebec7d5bd14f71427d1e84f3dd0314c0f7b2291e5b200ac8c7c3b92560405160405180910390a45050565b600061133882611200565b611377576040517f08c379a000000000000000000000000000000000000000000000000000000000815260040161136e906129dc565b60405180910390fd5b600061138283610a30565b90508073ffffffffffffffffffffffffffffffffffffffff168473ffffffffffffffffffffffffffffffffffffffff1614806113c457506113c3818561100a565b5b8061140257508373ffffffffffffffffffffffffffffffffffffffff166113ea846106f5565b73ffffffffffffffffffffffffffffffffffffffff16145b91505092915050565b8273ffffffffffffffffffffffffffffffffffffffff1661142b82610a30565b73ffffffffffffffffffffffffffffffffffffffff1614611481576040517f08c379a00000000000000000000000000000000000000000000000000000000081526004016114789061293c565b60405180910390fd5b600073ffffffffffffffffffffffffffffffffffffffff168273ffffffffffffffffffffffffffffffffffffffff1614156114f1576040517f08c379a00000000000000000000000000000000000000000000000000000000081526004016114e89061297c565b60405180910390fd5b6114fc838383611c10565b611507600082611274565b6001600360008573ffffffffffffffffffffffffffffffffffffffff1673ffffffffffffffffffffffffffffffffffffffff16815260200190815260200160002060008282546115579190612ca8565b925050819055506001600360008473ffffffffffffffffffffffffffffffffffffffff1673ffffffffffffffffffffffffffffffffffffffff16815260200190815260200160002060008282546115ae9190612c21565b92505081905550816002600083815260200190815260200160002060006101000a81548173ffffffffffffffffffffffffffffffffffffffff021916908373ffffffffffffffffffffffffffffffffffffffff160217905550808273ffffffffffffffffffffffffffffffffffffffff168473ffffffffffffffffffffffffffffffffffffffff167fddf252ad1be2c89b69c2b068fc378daa952ba7f163c4a11628f55a4df523b3ef60405160405180910390a461166d838383611c15565b505050565b7f000000000000000000000000000000000000000000000000000000000000000073ffffffffffffffffffffffffffffffffffffffff166351cff8d9826040518263ffffffff1660e01b81526004016116cb9190612858565b600060405180830381600087803b1580156116e557600080fd5b505af11580156116f9573d6000803e3d6000fd5b5050505050565b6000600660009054906101000a900473ffffffffffffffffffffffffffffffffffffffff16905081600660006101000a81548173ffffffffffffffffffffffffffffffffffffffff021916908373ffffffffffffffffffffffffffffffffffffffff1602179055508173ffffffffffffffffffffffffffffffffffffffff168173ffffffffffffffffffffffffffffffffffffffff167f8be0079c531659141344cd1fd0a4f28419497f9722a3daafe3b4186f6b6457e060405160405180910390a35050565b600081600001549050919050565b6001816000016000828254019250508190555050565b611804828260405180602001604052806000815250611c1a565b5050565b8173ffffffffffffffffffffffffffffffffffffffff168373ffffffffffffffffffffffffffffffffffffffff161415611877576040517f08c379a000000000000000000000000000000000000000000000000000000000815260040161186e9061299c565b60405180910390fd5b80600560008573ffffffffffffffffffffffffffffffffffffffff1673ffffffffffffffffffffffffffffffffffffffff16815260200190815260200160002060008473ffffffffffffffffffffffffffffffffffffffff1673ffffffffffffffffffffffffffffffffffffffff16815260200190815260200160002060006101000a81548160ff0219169083151502179055508173ffffffffffffffffffffffffffffffffffffffff168373ffffffffffffffffffffffffffffffffffffffff167f17307eab39ab6107e8899845ad3d59bd9653f200f220920489ca2b5937696c318360405161196891906128bf565b60405180910390a3505050565b61198084848461140b565b61198c84848484611c75565b6119cb576040517f08c379a00000000000000000000000000000000000000000000000000000000081526004016119c2906128fc565b60405180910390fd5b50505050565b6060600880546119e090612da4565b80601f0160208091040260200160405190810160405280929190818152602001828054611a0c90612da4565b8015611a595780601f10611a2e57610100808354040283529160200191611a59565b820191906000526020600020905b815481529060010190602001808311611a3c57829003601f168201915b5050505050905090565b60606000821415611aab576040518060400160405280600181526020017f30000000000000000000000000000000000000000000000000000000000000008152509050611c0b565b600082905060005b60008214611add578080611ac690612e07565b915050600a82611ad69190612c77565b9150611ab3565b60008167ffffffffffffffff811115611b1f577f4e487b7100000000000000000000000000000000000000000000000000000000600052604160045260246000fd5b6040519080825280601f01601f191660200182016040528015611b515781602001600182028036833780820191505090505b5090505b60008514611c0457600182611b6a9190612ca8565b9150600a85611b799190612e50565b6030611b859190612c21565b60f81b818381518110611bc1577f4e487b7100000000000000000000000000000000000000000000000000000000600052603260045260246000fd5b60200101907effffffffffffffffffffffffffffffffffffffffffffffffffffffffffffff1916908160001a905350600a85611bfd9190612c77565b9450611b55565b8093505050505b919050565b505050565b505050565b611c248383611e0c565b611c316000848484611c75565b611c70576040517f08c379a0000000000000000000000000000000000000000000000000000000008152600401611c67906128fc565b60405180910390fd5b505050565b6000611c968473ffffffffffffffffffffffffffffffffffffffff16611fe6565b15611dff578373ffffffffffffffffffffffffffffffffffffffff1663150b7a02611cbf61126c565b8786866040518563ffffffff1660e01b8152600401611ce19493929190612873565b602060405180830381600087803b158015611cfb57600080fd5b505af1925050508015611d2c57506040513d601f19601f82011682018060405250810190611d299190612408565b60015b611daf573d8060008114611d5c576040519150601f19603f3d011682016040523d82523d6000602084013e611d61565b606091505b50600081511415611da7576040517f08c379a0000000000000000000000000000000000000000000000000000000008152600401611d9e906128fc565b60405180910390fd5b805181602001fd5b63150b7a0260e01b7bffffffffffffffffffffffffffffffffffffffffffffffffffffffff1916817bffffffffffffffffffffffffffffffffffffffffffffffffffffffff191614915050611e04565b600190505b949350505050565b600073ffffffffffffffffffffffffffffffffffffffff168273ffffffffffffffffffffffffffffffffffffffff161415611e7c576040517f08c379a0000000000000000000000000000000000000000000000000000000008152600401611e7390612a5c565b60405180910390fd5b611e8581611200565b15611ec5576040517f08c379a0000000000000000000000000000000000000000000000000000000008152600401611ebc9061295c565b60405180910390fd5b611ed160008383611c10565b6001600360008473ffffffffffffffffffffffffffffffffffffffff1673ffffffffffffffffffffffffffffffffffffffff1681526020019081526020016000206000828254611f219190612c21565b92505081905550816002600083815260200190815260200160002060006101000a81548173ffffffffffffffffffffffffffffffffffffffff021916908373ffffffffffffffffffffffffffffffffffffffff160217905550808273ffffffffffffffffffffffffffffffffffffffff16600073ffffffffffffffffffffffffffffffffffffffff167fddf252ad1be2c89b69c2b068fc378daa952ba7f163c4a11628f55a4df523b3ef60405160405180910390a4611fe260008383611c15565b5050565b6000808273ffffffffffffffffffffffffffffffffffffffff163b119050919050565b82805461201590612da4565b90600052602060002090601f016020900481019282612037576000855561207e565b82601f1061205057805160ff191683800117855561207e565b8280016001018555821561207e579182015b8281111561207d578251825591602001919060010190612062565b5b50905061208b919061208f565b5090565b5b808211156120a8576000816000905550600101612090565b5090565b60006120bf6120ba84612b7c565b612b57565b9050828152602081018484840111156120d757600080fd5b6120e2848285612d62565b509392505050565b60006120fd6120f884612bad565b612b57565b90508281526020810184848401111561211557600080fd5b612120848285612d62565b509392505050565b6000813590506121378161341e565b92915050565b60008135905061214c81613435565b92915050565b6000813590506121618161344c565b92915050565b60008135905061217681613463565b92915050565b60008151905061218b81613463565b92915050565b600082601f8301126121a257600080fd5b81356121b28482602086016120ac565b91505092915050565b600082601f8301126121cc57600080fd5b81356121dc8482602086016120ea565b91505092915050565b6000813590506121f48161347a565b92915050565b6000815190506122098161347a565b92915050565b60006020828403121561222157600080fd5b600061222f84828501612128565b91505092915050565b60006020828403121561224a57600080fd5b60006122588482850161213d565b91505092915050565b6000806040838503121561227457600080fd5b600061228285828601612128565b925050602061229385828601612128565b9150509250929050565b6000806000606084860312156122b257600080fd5b60006122c086828701612128565b93505060206122d186828701612128565b92505060406122e2868287016121e5565b9150509250925092565b6000806000806080858703121561230257600080fd5b600061231087828801612128565b945050602061232187828801612128565b9350506040612332878288016121e5565b925050606085013567ffffffffffffffff81111561234f57600080fd5b61235b87828801612191565b91505092959194509250565b6000806040838503121561237a57600080fd5b600061238885828601612128565b925050602061239985828601612152565b9150509250929050565b600080604083850312156123b657600080fd5b60006123c485828601612128565b92505060206123d5858286016121e5565b9150509250929050565b6000602082840312156123f157600080fd5b60006123ff84828501612167565b91505092915050565b60006020828403121561241a57600080fd5b60006124288482850161217c565b91505092915050565b60006020828403121561244357600080fd5b600082013567ffffffffffffffff81111561245d57600080fd5b612469848285016121bb565b91505092915050565b60006020828403121561248457600080fd5b6000612492848285016121e5565b91505092915050565b6000602082840312156124ad57600080fd5b60006124bb848285016121fa565b91505092915050565b6124cd81612cee565b82525050565b6124dc81612cdc565b82525050565b6124eb81612d00565b82525050565b60006124fc82612bde565b6125068185612bf4565b9350612516818560208601612d71565b61251f81612f3d565b840191505092915050565b600061253582612be9565b61253f8185612c05565b935061254f818560208601612d71565b61255881612f3d565b840191505092915050565b600061256e82612be9565b6125788185612c16565b9350612588818560208601612d71565b80840191505092915050565b60006125a1603283612c05565b91506125ac82612f4e565b604082019050919050565b60006125c4602683612c05565b91506125cf82612f9d565b604082019050919050565b60006125e7602583612c05565b91506125f282612fec565b604082019050919050565b600061260a601c83612c05565b91506126158261303b565b602082019050919050565b600061262d602483612c05565b915061263882613064565b604082019050919050565b6000612650601983612c05565b915061265b826130b3565b602082019050919050565b6000612673602e83612c05565b915061267e826130dc565b604082019050919050565b6000612696602c83612c05565b91506126a18261312b565b604082019050919050565b60006126b9603883612c05565b91506126c48261317a565b604082019050919050565b60006126dc602a83612c05565b91506126e7826131c9565b604082019050919050565b60006126ff602983612c05565b915061270a82613218565b604082019050919050565b6000612722602083612c05565b915061272d82613267565b602082019050919050565b6000612745602c83612c05565b915061275082613290565b604082019050919050565b6000612768602083612c05565b9150612773826132df565b602082019050919050565b600061278b602f83612c05565b915061279682613308565b604082019050919050565b60006127ae602183612c05565b91506127b982613357565b604082019050919050565b60006127d1603183612c05565b91506127dc826133a6565b604082019050919050565b60006127f4601283612c05565b91506127ff826133f5565b602082019050919050565b61281381612d58565b82525050565b60006128258285612563565b91506128318284612563565b91508190509392505050565b600060208201905061285260008301846124d3565b92915050565b600060208201905061286d60008301846124c4565b92915050565b600060808201905061288860008301876124d3565b61289560208301866124d3565b6128a2604083018561280a565b81810360608301526128b481846124f1565b905095945050505050565b60006020820190506128d460008301846124e2565b92915050565b600060208201905081810360008301526128f4818461252a565b905092915050565b6000602082019050818103600083015261291581612594565b9050919050565b60006020820190508181036000830152612935816125b7565b9050919050565b60006020820190508181036000830152612955816125da565b9050919050565b60006020820190508181036000830152612975816125fd565b9050919050565b6000602082019050818103600083015261299581612620565b9050919050565b600060208201905081810360008301526129b581612643565b9050919050565b600060208201905081810360008301526129d581612666565b9050919050565b600060208201905081810360008301526129f581612689565b9050919050565b60006020820190508181036000830152612a15816126ac565b9050919050565b60006020820190508181036000830152612a35816126cf565b9050919050565b60006020820190508181036000830152612a55816126f2565b9050919050565b60006020820190508181036000830152612a7581612715565b9050919050565b60006020820190508181036000830152612a9581612738565b9050919050565b60006020820190508181036000830152612ab58161275b565b9050919050565b60006020820190508181036000830152612ad58161277e565b9050919050565b60006020820190508181036000830152612af5816127a1565b9050919050565b60006020820190508181036000830152612b15816127c4565b9050919050565b60006020820190508181036000830152612b35816127e7565b9050919050565b6000602082019050612b51600083018461280a565b92915050565b6000612b61612b72565b9050612b6d8282612dd6565b919050565b6000604051905090565b600067ffffffffffffffff821115612b9757612b96612f0e565b5b612ba082612f3d565b9050602081019050919050565b600067ffffffffffffffff821115612bc857612bc7612f0e565b5b612bd182612f3d565b9050602081019050919050565b600081519050919050565b600081519050919050565b600082825260208201905092915050565b600082825260208201905092915050565b600081905092915050565b6000612c2c82612d58565b9150612c3783612d58565b9250827fffffffffffffffffffffffffffffffffffffffffffffffffffffffffffffffff03821115612c6c57612c6b612e81565b5b828201905092915050565b6000612c8282612d58565b9150612c8d83612d58565b925082612c9d57612c9c612eb0565b5b828204905092915050565b6000612cb382612d58565b9150612cbe83612d58565b925082821015612cd157612cd0612e81565b5b828203905092915050565b6000612ce782612d38565b9050919050565b6000612cf982612d38565b9050919050565b60008115159050919050565b60007fffffffff0000000000000000000000000000000000000000000000000000000082169050919050565b600073ffffffffffffffffffffffffffffffffffffffff82169050919050565b6000819050919050565b82818337600083830152505050565b60005b83811015612d8f578082015181840152602081019050612d74565b83811115612d9e576000848401525b50505050565b60006002820490506001821680612dbc57607f821691505b60208210811415612dd057612dcf612edf565b5b50919050565b612ddf82612f3d565b810181811067ffffffffffffffff82111715612dfe57612dfd612f0e565b5b80604052505050565b6000612e1282612d58565b91507fffffffffffffffffffffffffffffffffffffffffffffffffffffffffffffffff821415612e4557612e44612e81565b5b600182019050919050565b6000612e5b82612d58565b9150612e6683612d58565b925082612e7657612e75612eb0565b5b828206905092915050565b7f4e487b7100000000000000000000000000000000000000000000000000000000600052601160045260246000fd5b7f4e487b7100000000000000000000000000000000000000000000000000000000600052601260045260246000fd5b7f4e487b7100000000000000000000000000000000000000000000000000000000600052602260045260246000fd5b7f4e487b7100000000000000000000000000000000000000000000000000000000600052604160045260246000fd5b6000601f19601f8301169050919050565b7f4552433732313a207472616e7366657220746f206e6f6e20455243373231526560008201527f63656976657220696d706c656d656e7465720000000000000000000000000000602082015250565b7f4f776e61626c653a206e6577206f776e657220697320746865207a65726f206160008201527f6464726573730000000000000000000000000000000000000000000000000000602082015250565b7f4552433732313a207472616e736665722066726f6d20696e636f72726563742060008201527f6f776e6572000000000000000000000000000000000000000000000000000000602082015250565b7f4552433732313a20746f6b656e20616c7265616479206d696e74656400000000600082015250565b7f4552433732313a207472616e7366657220746f20746865207a65726f2061646460008201527f7265737300000000000000000000000000000000000000000000000000000000602082015250565b7f4552433732313a20617070726f766520746f2063616c6c657200000000000000600082015250565b7f5472616e73616374696f6e2076616c756520646964206e6f7420657175616c2060008201527f746865206d696e74207072696365000000000000000000000000000000000000602082015250565b7f4552433732313a206f70657261746f7220717565727920666f72206e6f6e657860008201527f697374656e7420746f6b656e0000000000000000000000000000000000000000602082015250565b7f4552433732313a20617070726f76652063616c6c6572206973206e6f74206f7760008201527f6e6572206e6f7220617070726f76656420666f7220616c6c0000000000000000602082015250565b7f4552433732313a2062616c616e636520717565727920666f7220746865207a6560008201527f726f206164647265737300000000000000000000000000000000000000000000602082015250565b7f4552433732313a206f776e657220717565727920666f72206e6f6e657869737460008201527f656e7420746f6b656e0000000000000000000000000000000000000000000000602082015250565b7f4552433732313a206d696e7420746f20746865207a65726f2061646472657373600082015250565b7f4552433732313a20617070726f76656420717565727920666f72206e6f6e657860008201527f697374656e7420746f6b656e0000000000000000000000000000000000000000602082015250565b7f4f776e61626c653a2063616c6c6572206973206e6f7420746865206f776e6572600082015250565b7f4552433732314d657461646174613a2055524920717565727920666f72206e6f60008201527f6e6578697374656e7420746f6b656e0000000000000000000000000000000000602082015250565b7f4552433732313a20617070726f76616c20746f2063757272656e74206f776e6560008201527f7200000000000000000000000000000000000000000000000000000000000000602082015250565b7f4552433732313a207472616e736665722063616c6c6572206973206e6f74206f60008201527f776e6572206e6f7220617070726f766564000000000000000000000000000000602082015250565b7f4d617820737570706c7920726561636865640000000000000000000000000000600082015250565b61342781612cdc565b811461343257600080fd5b50565b61343e81612cee565b811461344957600080fd5b50565b61345581612d00565b811461346057600080fd5b50565b61346c81612d0c565b811461347757600080fd5b50565b61348381612d58565b811461348e57600080fd5b5056fea2646970667358221220ce78a2db46e2b31d254f5ea5ccd23173dcd0cb2a9760dfa4d72d4dcd78da200f64736f6c63430008010033608060405234801561001057600080fd5b5061002d61002261003260201b60201c565b61003a60201b60201c565b6100fe565b600033905090565b60008060009054906101000a900473ffffffffffffffffffffffffffffffffffffffff169050816000806101000a81548173ffffffffffffffffffffffffffffffffffffffff021916908373ffffffffffffffffffffffffffffffffffffffff1602179055508173ffffffffffffffffffffffffffffffffffffffff168173ffffffffffffffffffffffffffffffffffffffff167f8be0079c531659141344cd1fd0a4f28419497f9722a3daafe3b4186f6b6457e060405160405180910390a35050565b610bfc8061010d6000396000f3fe6080604052600436106100555760003560e01c806351cff8d91461005a578063715018a6146100835780638da5cb5b1461009a578063e3a9db1a146100c5578063f2fde38b14610102578063f340fa011461012b575b600080fd5b34801561006657600080fd5b50610081600480360381019061007c91906107f5565b610147565b005b34801561008f57600080fd5b506100986102c7565b005b3480156100a657600080fd5b506100af61034f565b6040516100bc9190610900565b60405180910390f35b3480156100d157600080fd5b506100ec60048036038101906100e791906107cc565b610378565b6040516100f9919061099b565b60405180910390f35b34801561010e57600080fd5b50610129600480360381019061012491906107cc565b6103c1565b005b610145600480360381019061014091906107cc565b6104b9565b005b61014f6105e2565b73ffffffffffffffffffffffffffffffffffffffff1661016d61034f565b73ffffffffffffffffffffffffffffffffffffffff16146101c3576040517f08c379a00000000000000000000000000000000000000000000000000000000081526004016101ba9061097b565b60405180910390fd5b6000600160008373ffffffffffffffffffffffffffffffffffffffff1673ffffffffffffffffffffffffffffffffffffffff1681526020019081526020016000205490506000600160008473ffffffffffffffffffffffffffffffffffffffff1673ffffffffffffffffffffffffffffffffffffffff16815260200190815260200160002081905550610275818373ffffffffffffffffffffffffffffffffffffffff166105ea90919063ffffffff16565b8173ffffffffffffffffffffffffffffffffffffffff167f7084f5476618d8e60b11ef0d7d3f06914655adb8793e28ff7f018d4c76d505d5826040516102bb919061099b565b60405180910390a25050565b6102cf6105e2565b73ffffffffffffffffffffffffffffffffffffffff166102ed61034f565b73ffffffffffffffffffffffffffffffffffffffff1614610343576040517f08c379a000000000000000000000000000000000000000000000000000000000815260040161033a9061097b565b60405180910390fd5b61034d60006106de565b565b60008060009054906101000a900473ffffffffffffffffffffffffffffffffffffffff16905090565b6000600160008373ffffffffffffffffffffffffffffffffffffffff1673ffffffffffffffffffffffffffffffffffffffff168152602001908152602001600020549050919050565b6103c96105e2565b73ffffffffffffffffffffffffffffffffffffffff166103e761034f565b73ffffffffffffffffffffffffffffffffffffffff161461043d576040517f08c379a00000000000000000000000000000000000000000000000000000000081526004016104349061097b565b60405180910390fd5b600073ffffffffffffffffffffffffffffffffffffffff168173ffffffffffffffffffffffffffffffffffffffff1614156104ad576040517f08c379a00000000000000000000000000000000000000000000000000000000081526004016104a49061091b565b60405180910390fd5b6104b6816106de565b50565b6104c16105e2565b73ffffffffffffffffffffffffffffffffffffffff166104df61034f565b73ffffffffffffffffffffffffffffffffffffffff1614610535576040517f08c379a000000000000000000000000000000000000000000000000000000000815260040161052c9061097b565b60405180910390fd5b600034905080600160008473ffffffffffffffffffffffffffffffffffffffff1673ffffffffffffffffffffffffffffffffffffffff168152602001908152602001600020600082825461058991906109d2565b925050819055508173ffffffffffffffffffffffffffffffffffffffff167f2da466a7b24304f47e87fa2e1e5a81b9831ce54fec19055ce277ca2f39ba42c4826040516105d6919061099b565b60405180910390a25050565b600033905090565b8047101561062d576040517f08c379a00000000000000000000000000000000000000000000000000000000081526004016106249061095b565b60405180910390fd5b60008273ffffffffffffffffffffffffffffffffffffffff1682604051610653906108eb565b60006040518083038185875af1925050503d8060008114610690576040519150601f19603f3d011682016040523d82523d6000602084013e610695565b606091505b50509050806106d9576040517f08c379a00000000000000000000000000000000000000000000000000000000081526004016106d09061093b565b60405180910390fd5b505050565b60008060009054906101000a900473ffffffffffffffffffffffffffffffffffffffff169050816000806101000a81548173ffffffffffffffffffffffffffffffffffffffff021916908373ffffffffffffffffffffffffffffffffffffffff1602179055508173ffffffffffffffffffffffffffffffffffffffff168173ffffffffffffffffffffffffffffffffffffffff167f8be0079c531659141344cd1fd0a4f28419497f9722a3daafe3b4186f6b6457e060405160405180910390a35050565b6000813590506107b181610b98565b92915050565b6000813590506107c681610baf565b92915050565b6000602082840312156107de57600080fd5b60006107ec848285016107a2565b91505092915050565b60006020828403121561080757600080fd5b6000610815848285016107b7565b91505092915050565b61082781610a28565b82525050565b600061083a6026836109c1565b915061084582610aa5565b604082019050919050565b600061085d603a836109c1565b915061086882610af4565b604082019050919050565b6000610880601d836109c1565b915061088b82610b43565b602082019050919050565b60006108a36020836109c1565b91506108ae82610b6c565b602082019050919050565b60006108c66000836109b6565b91506108d182610b95565b600082019050919050565b6108e581610a6c565b82525050565b60006108f6826108b9565b9150819050919050565b6000602082019050610915600083018461081e565b92915050565b600060208201905081810360008301526109348161082d565b9050919050565b6000602082019050818103600083015261095481610850565b9050919050565b6000602082019050818103600083015261097481610873565b9050919050565b6000602082019050818103600083015261099481610896565b9050919050565b60006020820190506109b060008301846108dc565b92915050565b600081905092915050565b600082825260208201905092915050565b60006109dd82610a6c565b91506109e883610a6c565b9250827fffffffffffffffffffffffffffffffffffffffffffffffffffffffffffffffff03821115610a1d57610a1c610a76565b5b828201905092915050565b6000610a3382610a4c565b9050919050565b6000610a4582610a4c565b9050919050565b600073ffffffffffffffffffffffffffffffffffffffff82169050919050565b6000819050919050565b7f4e487b7100000000000000000000000000000000000000000000000000000000600052601160045260246000fd5b7f4f776e61626c653a206e6577206f776e657220697320746865207a65726f206160008201527f6464726573730000000000000000000000000000000000000000000000000000602082015250565b7f416464726573733a20756e61626c6520746f2073656e642076616c75652c207260008201527f6563697069656e74206d61792068617665207265766572746564000000000000602082015250565b7f416464726573733a20696e73756666696369656e742062616c616e6365000000600082015250565b7f4f776e61626c653a2063616c6c6572206973206e6f7420746865206f776e6572600082015250565b50565b610ba181610a28565b8114610bac57600080fd5b50565b610bb881610a3a565b8114610bc357600080fd5b5056fea264697066735822122073b307195fd92b28f2600edbbb914776573abe0392628b3f8a5ee2d6ab956cfa64736f6c63430008010033",
  "linkReferences": {},
  "deployedLinkReferences": {}
}